{
  "_format": "hh-sol-artifact-1",
  "contractName": "dhie",
  "sourceName": "contracts/dhie.sol",
  "abi": [
    {
      "inputs": [
        {
          "internalType": "string",
          "name": "_fileId",
          "type": "string"
        },
        {
          "internalType": "string",
          "name": "_userId",
          "type": "string"
        },
        {
          "internalType": "string",
          "name": "_CID",
          "type": "string"
        }
      ],
      "name": "Uploading",
      "outputs": [],
      "stateMutability": "nonpayable",
      "type": "function"
    },
    {
      "inputs": [
        {
          "internalType": "string",
          "name": "_fileId",
          "type": "string"
        },
        {
          "internalType": "string",
          "name": "_owner",
          "type": "string"
        }
      ],
      "name": "fileForSale",
      "outputs": [],
      "stateMutability": "nonpayable",
      "type": "function"
    },
    {
      "inputs": [
        {
          "internalType": "string",
          "name": "_fileId",
          "type": "string"
        },
        {
          "internalType": "string",
          "name": "_owner",
          "type": "string"
        }
      ],
      "name": "fileNotForSale",
      "outputs": [],
      "stateMutability": "nonpayable",
      "type": "function"
    },
    {
      "inputs": [
        {
          "internalType": "string",
          "name": "_fileId",
          "type": "string"
        },
        {
          "internalType": "string",
          "name": "_owner",
          "type": "string"
        }
      ],
      "name": "getFileForBuyer",
      "outputs": [
        {
          "internalType": "string",
          "name": "",
          "type": "string"
        }
      ],
      "stateMutability": "view",
      "type": "function"
    },
    {
      "inputs": [
        {
          "internalType": "string",
          "name": "_fileId",
          "type": "string"
        },
        {
          "internalType": "string",
          "name": "_owner",
          "type": "string"
        }
      ],
      "name": "getFileForOwner",
      "outputs": [
        {
          "internalType": "string",
          "name": "",
          "type": "string"
        }
      ],
      "stateMutability": "view",
      "type": "function"
    },
    {
      "inputs": [
        {
          "internalType": "string",
          "name": "_user",
          "type": "string"
        }
      ],
      "name": "getUserdetails",
      "outputs": [
        {
          "internalType": "string",
          "name": "",
          "type": "string"
        },
        {
          "internalType": "string",
          "name": "",
          "type": "string"
        },
        {
          "internalType": "string",
          "name": "",
          "type": "string"
        },
        {
          "internalType": "bool",
          "name": "",
          "type": "bool"
        }
      ],
      "stateMutability": "view",
      "type": "function"
    },
    {
      "inputs": [
        {
          "internalType": "string",
          "name": "_userId",
          "type": "string"
        },
        {
          "internalType": "string",
          "name": "_name",
          "type": "string"
        },
        {
          "internalType": "string",
          "name": "_role",
          "type": "string"
        }
      ],
      "name": "registerUser",
      "outputs": [],
      "stateMutability": "nonpayable",
      "type": "function"
    },
    {
      "inputs": [
        {
          "internalType": "string",
          "name": "_owner",
          "type": "string"
        },
        {
          "internalType": "string",
          "name": "_userId",
          "type": "string"
        },
        {
          "internalType": "string",
          "name": "_fileId",
          "type": "string"
        }
      ],
      "name": "sell",
      "outputs": [],
      "stateMutability": "nonpayable",
      "type": "function"
    },
    {
      "inputs": [
        {
          "internalType": "string",
          "name": "",
          "type": "string"
        }
      ],
      "name": "users",
      "outputs": [
        {
          "internalType": "string",
          "name": "userId",
          "type": "string"
        },
        {
          "internalType": "string",
          "name": "name",
          "type": "string"
        },
        {
          "internalType": "string",
          "name": "role",
          "type": "string"
        },
        {
          "internalType": "bool",
          "name": "isRegistered",
          "type": "bool"
        }
      ],
      "stateMutability": "view",
      "type": "function"
    }
  ],
  "bytecode": "0x608060405234801561001057600080fd5b506115cf806100206000396000f3fe608060405234801561001057600080fd5b50600436106100935760003560e01c806362032918116100665780636203291814610130578063689e1c0314610163578063d637dcfa14610196578063dd12c712146101b2578063f507e9d4146101ce57610093565b806301df2b1a14610098578063093d0c52146100b457806332c03e69146100e4578063524d960314610114575b600080fd5b6100b260048036038101906100ad9190610c7f565b6101ea565b005b6100ce60048036038101906100c99190610d33565b6103a1565b6040516100db9190610e44565b60405180910390f35b6100fe60048036038101906100f99190610d33565b61047c565b60405161010b9190610e44565b60405180910390f35b61012e60048036038101906101299190610d33565b610555565b005b61014a60048036038101906101459190610e66565b6105bb565b60405161015a9493929190610ece565b60405180910390f35b61017d60048036038101906101789190611058565b6107bb565b60405161018d9493929190610ece565b60405180910390f35b6101b060048036038101906101ab91906110a1565b6109a6565b005b6101cc60048036038101906101c79190610c7f565b610ac7565b005b6101e860048036038101906101e39190610d33565b610ba4565b005b6001151560008787604051610200929190611178565b9081526020016040518091039020838360405161021e929190611178565b908152602001604051809103902060010160009054906101000a900460ff1615151461027f576040517f08c379a0000000000000000000000000000000000000000000000000000000008152600401610276906111dd565b60405180910390fd5b6000808787604051610292929190611178565b908152602001604051809103902083836040516102b0929190611178565b908152602001604051809103902060000180546102cc9061122c565b80601f01602080910402602001604051908101604052809291908181526020018280546102f89061122c565b80156103455780601f1061031a57610100808354040283529160200191610345565b820191906000526020600020905b81548152906001019060200180831161032857829003601f168201915b50505050509050806001868660405161035f929190611178565b9081526020016040518091039020848460405161037d929190611178565b908152602001604051809103902090816103979190611413565b5050505050505050565b606060008084846040516103b6929190611178565b908152602001604051809103902086866040516103d4929190611178565b908152602001604051809103902060000180546103f09061122c565b80601f016020809104026020016040519081016040528092919081815260200182805461041c9061122c565b80156104695780601f1061043e57610100808354040283529160200191610469565b820191906000526020600020905b81548152906001019060200180831161044c57829003601f168201915b5050505050905080915050949350505050565b6060600060018484604051610492929190611178565b908152602001604051809103902086866040516104b0929190611178565b908152602001604051809103902080546104c99061122c565b80601f01602080910402602001604051908101604052809291908181526020018280546104f59061122c565b80156105425780601f1061051757610100808354040283529160200191610542565b820191906000526020600020905b81548152906001019060200180831161052557829003601f168201915b5050505050905080915050949350505050565b600060019050806000848460405161056e929190611178565b9081526020016040518091039020868660405161058c929190611178565b908152602001604051809103902060010160006101000a81548160ff0219169083151502179055505050505050565b6060806060600080600287876040516105d5929190611178565b908152602001604051809103902060010180546105f19061122c565b80601f016020809104026020016040519081016040528092919081815260200182805461061d9061122c565b801561066a5780601f1061063f5761010080835404028352916020019161066a565b820191906000526020600020905b81548152906001019060200180831161064d57829003601f168201915b50505050509050600060028888604051610685929190611178565b908152602001604051809103902060020180546106a19061122c565b80601f01602080910402602001604051908101604052809291908181526020018280546106cd9061122c565b801561071a5780601f106106ef5761010080835404028352916020019161071a565b820191906000526020600020905b8154815290600101906020018083116106fd57829003601f168201915b50505050509050600060028989604051610735929190611178565b908152602001604051809103902060030160009054906101000a900460ff169050888884848484848080601f016020809104026020016040519081016040528093929190818152602001838380828437600081840152601f19601f8201169050808301925050505050505093509091929350965096509650965050505092959194509250565b6002818051602081018201805184825260208301602085012081835280955050505050506000915090508060000180546107f49061122c565b80601f01602080910402602001604051908101604052809291908181526020018280546108209061122c565b801561086d5780601f106108425761010080835404028352916020019161086d565b820191906000526020600020905b81548152906001019060200180831161085057829003601f168201915b5050505050908060010180546108829061122c565b80601f01602080910402602001604051908101604052809291908181526020018280546108ae9061122c565b80156108fb5780601f106108d0576101008083540402835291602001916108fb565b820191906000526020600020905b8154815290600101906020018083116108de57829003601f168201915b5050505050908060020180546109109061122c565b80601f016020809104026020016040519081016040528092919081815260200182805461093c9061122c565b80156109895780601f1061095e57610100808354040283529160200191610989565b820191906000526020600020905b81548152906001019060200180831161096c57829003601f168201915b5050505050908060030160009054906101000a900460ff16905084565b600015156002846040516109ba9190611516565b908152602001604051809103902060030160009054906101000a900460ff16151514610a1b576040517f08c379a0000000000000000000000000000000000000000000000000000000008152600401610a1290611579565b60405180910390fd5b604051806080016040528084815260200183815260200182815260200160011515815250600284604051610a4f9190611516565b90815260200160405180910390206000820151816000019081610a729190611413565b506020820151816001019081610a889190611413565b506040820151816002019081610a9e9190611413565b5060608201518160030160006101000a81548160ff021916908315150217905550905050505050565b6000604051806040016040528084848080601f016020809104026020016040519081016040528093929190818152602001838380828437600081840152601f19601f82011690508083019250505050505050815260200182151581525060008686604051610b36929190611178565b90815260200160405180910390208888604051610b54929190611178565b90815260200160405180910390206000820151816000019081610b779190611413565b5060208201518160010160006101000a81548160ff02191690831515021790555090505050505050505050565b60008060008484604051610bb9929190611178565b90815260200160405180910390208686604051610bd7929190611178565b908152602001604051809103902060010160006101000a81548160ff0219169083151502179055505050505050565b6000604051905090565b600080fd5b600080fd5b600080fd5b600080fd5b600080fd5b60008083601f840112610c3f57610c3e610c1a565b5b8235905067ffffffffffffffff811115610c5c57610c5b610c1f565b5b602083019150836001820283011115610c7857610c77610c24565b5b9250929050565b60008060008060008060608789031215610c9c57610c9b610c10565b5b600087013567ffffffffffffffff811115610cba57610cb9610c15565b5b610cc689828a01610c29565b9650965050602087013567ffffffffffffffff811115610ce957610ce8610c15565b5b610cf589828a01610c29565b9450945050604087013567ffffffffffffffff811115610d1857610d17610c15565b5b610d2489828a01610c29565b92509250509295509295509295565b60008060008060408587031215610d4d57610d4c610c10565b5b600085013567ffffffffffffffff811115610d6b57610d6a610c15565b5b610d7787828801610c29565b9450945050602085013567ffffffffffffffff811115610d9a57610d99610c15565b5b610da687828801610c29565b925092505092959194509250565b600081519050919050565b600082825260208201905092915050565b60005b83811015610dee578082015181840152602081019050610dd3565b60008484015250505050565b6000601f19601f8301169050919050565b6000610e1682610db4565b610e208185610dbf565b9350610e30818560208601610dd0565b610e3981610dfa565b840191505092915050565b60006020820190508181036000830152610e5e8184610e0b565b905092915050565b60008060208385031215610e7d57610e7c610c10565b5b600083013567ffffffffffffffff811115610e9b57610e9a610c15565b5b610ea785828601610c29565b92509250509250929050565b60008115159050919050565b610ec881610eb3565b82525050565b60006080820190508181036000830152610ee88187610e0b565b90508181036020830152610efc8186610e0b565b90508181036040830152610f108185610e0b565b9050610f1f6060830184610ebf565b95945050505050565b600080fd5b7f4e487b7100000000000000000000000000000000000000000000000000000000600052604160045260246000fd5b610f6582610dfa565b810181811067ffffffffffffffff82111715610f8457610f83610f2d565b5b80604052505050565b6000610f97610c06565b9050610fa38282610f5c565b919050565b600067ffffffffffffffff821115610fc357610fc2610f2d565b5b610fcc82610dfa565b9050602081019050919050565b82818337600083830152505050565b6000610ffb610ff684610fa8565b610f8d565b90508281526020810184848401111561101757611016610f28565b5b611022848285610fd9565b509392505050565b600082601f83011261103f5761103e610c1a565b5b813561104f848260208601610fe8565b91505092915050565b60006020828403121561106e5761106d610c10565b5b600082013567ffffffffffffffff81111561108c5761108b610c15565b5b6110988482850161102a565b91505092915050565b6000806000606084860312156110ba576110b9610c10565b5b600084013567ffffffffffffffff8111156110d8576110d7610c15565b5b6110e48682870161102a565b935050602084013567ffffffffffffffff81111561110557611104610c15565b5b6111118682870161102a565b925050604084013567ffffffffffffffff81111561113257611131610c15565b5b61113e8682870161102a565b9150509250925092565b600081905092915050565b600061115f8385611148565b935061116c838584610fd9565b82840190509392505050565b6000611185828486611153565b91508190509392505050565b7f4e6f7420466f722053616c650000000000000000000000000000000000000000600082015250565b60006111c7600c83610dbf565b91506111d282611191565b602082019050919050565b600060208201905081810360008301526111f6816111ba565b9050919050565b7f4e487b7100000000000000000000000000000000000000000000000000000000600052602260045260246000fd5b6000600282049050600182168061124457607f821691505b602082108103611257576112566111fd565b5b50919050565b60008190508160005260206000209050919050565b60006020601f8301049050919050565b600082821b905092915050565b6000600883026112bf7fffffffffffffffffffffffffffffffffffffffffffffffffffffffffffffffff82611282565b6112c98683611282565b95508019841693508086168417925050509392505050565b6000819050919050565b6000819050919050565b600061131061130b611306846112e1565b6112eb565b6112e1565b9050919050565b6000819050919050565b61132a836112f5565b61133e61133682611317565b84845461128f565b825550505050565b600090565b611353611346565b61135e818484611321565b505050565b5b818110156113825761137760008261134b565b600181019050611364565b5050565b601f8211156113c7576113988161125d565b6113a184611272565b810160208510156113b0578190505b6113c46113bc85611272565b830182611363565b50505b505050565b600082821c905092915050565b60006113ea600019846008026113cc565b1980831691505092915050565b600061140383836113d9565b9150826002028217905092915050565b61141c82610db4565b67ffffffffffffffff81111561143557611434610f2d565b5b61143f825461122c565b61144a828285611386565b600060209050601f83116001811461147d576000841561146b578287015190505b61147585826113f7565b8655506114dd565b601f19841661148b8661125d565b60005b828110156114b35784890151825560018201915060208501945060208101905061148e565b868310156114d057848901516114cc601f8916826113d9565b8355505b6001600288020188555050505b505050505050565b60006114f082610db4565b6114fa8185611148565b935061150a818560208601610dd0565b80840191505092915050565b600061152282846114e5565b915081905092915050565b7f5573657220616c726561647920726567697374657265642e0000000000000000600082015250565b6000611563601883610dbf565b915061156e8261152d565b602082019050919050565b6000602082019050818103600083015261159281611556565b905091905056fea2646970667358221220044e2a4116e436c1de6d86fe1a5c1b3563261981359788fa9856941f93ca74d164736f6c63430008110033",
  "linkReferences": {},
  "deployedLinkReferences": {}
}