{
    "_format": "hh-sol-artifact-1",
    "contractName": "dhie",
    "sourceName": "contracts/dhie.sol",
    "abi": [
        {
            "inputs": [
                {
                    "internalType": "string",
                    "name": "_fileId",
                    "type": "string"
                },
                {
                    "internalType": "string",
                    "name": "_userId",
                    "type": "string"
                },
                {
                    "internalType": "string",
                    "name": "_CID",
                    "type": "string"
                }
            ],
            "name": "Uploading",
            "outputs": [],
            "stateMutability": "nonpayable",
            "type": "function"
        },
        {
            "inputs": [
                {
                    "internalType": "string",
                    "name": "_fileId",
                    "type": "string"
                },
                {
                    "internalType": "string",
                    "name": "_owner",
                    "type": "string"
                }
            ],
            "name": "fileForSale",
            "outputs": [],
            "stateMutability": "nonpayable",
            "type": "function"
        },
        {
            "inputs": [
                {
                    "internalType": "string",
                    "name": "_fileId",
                    "type": "string"
                },
                {
                    "internalType": "string",
                    "name": "_owner",
                    "type": "string"
                }
            ],
            "name": "fileNotForSale",
            "outputs": [],
            "stateMutability": "nonpayable",
            "type": "function"
        },
        {
            "inputs": [
                {
                    "internalType": "string",
                    "name": "_fileId",
                    "type": "string"
                },
                {
                    "internalType": "string",
                    "name": "_owner",
                    "type": "string"
                }
            ],
            "name": "getFileForBuyer",
            "outputs": [
                {
                    "internalType": "string",
                    "name": "",
                    "type": "string"
                }
            ],
            "stateMutability": "view",
            "type": "function"
        },
        {
            "inputs": [
                {
                    "internalType": "string",
                    "name": "_fileId",
                    "type": "string"
                },
                {
                    "internalType": "string",
                    "name": "_owner",
                    "type": "string"
                }
            ],
            "name": "getFileForOwner",
            "outputs": [
                {
                    "internalType": "string",
                    "name": "",
                    "type": "string"
                }
            ],
            "stateMutability": "view",
            "type": "function"
        },
        {
            "inputs": [
                {
                    "internalType": "string",
                    "name": "_user",
                    "type": "string"
                }
            ],
            "name": "getUserdetails",
            "outputs": [
                {
                    "internalType": "string",
                    "name": "",
                    "type": "string"
                },
                {
                    "internalType": "string",
                    "name": "",
                    "type": "string"
                },
                {
                    "internalType": "enum dhie.Role",
                    "name": "",
                    "type": "uint8"
                },
                {
                    "internalType": "bool",
                    "name": "",
                    "type": "bool"
                }
            ],
            "stateMutability": "view",
            "type": "function"
        },
        {
            "inputs": [
                {
                    "internalType": "string",
                    "name": "_userId",
                    "type": "string"
                },
                {
                    "internalType": "string",
                    "name": "_userAddress",
                    "type": "string"
                },
                {
                    "internalType": "string",
                    "name": "_name",
                    "type": "string"
                },
                {
                    "internalType": "enum dhie.Role",
                    "name": "_role",
                    "type": "uint8"
                }
            ],
            "name": "registerUser",
            "outputs": [],
            "stateMutability": "nonpayable",
            "type": "function"
        },
        {
            "inputs": [
                {
                    "internalType": "string",
                    "name": "_owner",
                    "type": "string"
                },
                {
                    "internalType": "string",
                    "name": "_userId",
                    "type": "string"
                },
                {
                    "internalType": "string",
                    "name": "_fileId",
                    "type": "string"
                }
            ],
            "name": "sell",
            "outputs": [],
            "stateMutability": "nonpayable",
            "type": "function"
        },
        {
            "inputs": [
                {
                    "internalType": "string",
                    "name": "",
                    "type": "string"
                }
            ],
            "name": "users",
            "outputs": [
                {
                    "internalType": "string",
                    "name": "userId",
                    "type": "string"
                },
                {
                    "internalType": "string",
                    "name": "userAddress",
                    "type": "string"
                },
                {
                    "internalType": "string",
                    "name": "name",
                    "type": "string"
                },
                {
                    "internalType": "enum dhie.Role",
                    "name": "role",
                    "type": "uint8"
                },
                {
                    "internalType": "bool",
                    "name": "isRegistered",
                    "type": "bool"
                }
            ],
            "stateMutability": "view",
            "type": "function"
        }
    ],
    "bytecode": "0x608060405234801561001057600080fd5b50611726806100206000396000f3fe608060405234801561001057600080fd5b50600436106100935760003560e01c8063524d960311610066578063524d960314610130578063620329181461014c578063689e1c031461017f578063dd12c712146101b3578063f507e9d4146101cf57610093565b806301df2b1a14610098578063093d0c52146100b45780630f771417146100e457806332c03e6914610100575b600080fd5b6100b260048036038101906100ad9190610cc5565b6101eb565b005b6100ce60048036038101906100c99190610d79565b6103a2565b6040516100db9190610e8a565b60405180910390f35b6100fe60048036038101906100f99190611001565b61047d565b005b61011a60048036038101906101159190610d79565b6105e7565b6040516101279190610e8a565b60405180910390f35b61014a60048036038101906101459190610d79565b6106c0565b005b610166600480360381019061016191906110bc565b610726565b604051610176949392919061119b565b60405180910390f35b610199600480360381019061019491906111ee565b61090f565b6040516101aa959493929190611237565b60405180910390f35b6101cd60048036038101906101c89190610cc5565b610b0d565b005b6101e960048036038101906101e49190610d79565b610bea565b005b60011515600087876040516102019291906112cf565b9081526020016040518091039020838360405161021f9291906112cf565b908152602001604051809103902060010160009054906101000a900460ff16151514610280576040517f08c379a000000000000000000000000000000000000000000000000000000000815260040161027790611334565b60405180910390fd5b60008087876040516102939291906112cf565b908152602001604051809103902083836040516102b19291906112cf565b908152602001604051809103902060000180546102cd90611383565b80601f01602080910402602001604051908101604052809291908181526020018280546102f990611383565b80156103465780601f1061031b57610100808354040283529160200191610346565b820191906000526020600020905b81548152906001019060200180831161032957829003601f168201915b5050505050905080600186866040516103609291906112cf565b9081526020016040518091039020848460405161037e9291906112cf565b90815260200160405180910390209081610398919061156a565b5050505050505050565b606060008084846040516103b79291906112cf565b908152602001604051809103902086866040516103d59291906112cf565b908152602001604051809103902060000180546103f190611383565b80601f016020809104026020016040519081016040528092919081815260200182805461041d90611383565b801561046a5780601f1061043f5761010080835404028352916020019161046a565b820191906000526020600020905b81548152906001019060200180831161044d57829003601f168201915b5050505050905080915050949350505050565b60001515600285604051610491919061166d565b908152602001604051809103902060030160019054906101000a900460ff161515146104f2576040517f08c379a00000000000000000000000000000000000000000000000000000000081526004016104e9906116d0565b60405180910390fd5b6040518060a0016040528085815260200184815260200183815260200182600281111561052257610521611109565b5b81526020016001151581525060028560405161053e919061166d565b90815260200160405180910390206000820151816000019081610561919061156a565b506020820151816001019081610577919061156a565b50604082015181600201908161058d919061156a565b5060608201518160030160006101000a81548160ff021916908360028111156105b9576105b8611109565b5b021790555060808201518160030160016101000a81548160ff02191690831515021790555090505050505050565b60606000600184846040516105fd9291906112cf565b9081526020016040518091039020868660405161061b9291906112cf565b9081526020016040518091039020805461063490611383565b80601f016020809104026020016040519081016040528092919081815260200182805461066090611383565b80156106ad5780601f10610682576101008083540402835291602001916106ad565b820191906000526020600020905b81548152906001019060200180831161069057829003601f168201915b5050505050905080915050949350505050565b60006001905080600084846040516106d99291906112cf565b908152602001604051809103902086866040516106f79291906112cf565b908152602001604051809103902060010160006101000a81548160ff0219169083151502179055505050505050565b6060806000806000600287876040516107409291906112cf565b9081526020016040518091039020600101805461075c90611383565b80601f016020809104026020016040519081016040528092919081815260200182805461078890611383565b80156107d55780601f106107aa576101008083540402835291602001916107d5565b820191906000526020600020905b8154815290600101906020018083116107b857829003601f168201915b505050505090506000600288886040516107f09291906112cf565b9081526020016040518091039020600201805461080c90611383565b80601f016020809104026020016040519081016040528092919081815260200182805461083890611383565b80156108855780601f1061085a57610100808354040283529160200191610885565b820191906000526020600020905b81548152906001019060200180831161086857829003601f168201915b505050505090506000600289896040516108a09291906112cf565b908152602001604051809103902060030160009054906101000a900460ff169050600060028a8a6040516108d59291906112cf565b908152602001604051809103902060030160019054906101000a900460ff1690508383838397509750975097505050505092959194509250565b60028180516020810182018051848252602083016020850120818352809550505050505060009150905080600001805461094890611383565b80601f016020809104026020016040519081016040528092919081815260200182805461097490611383565b80156109c15780601f10610996576101008083540402835291602001916109c1565b820191906000526020600020905b8154815290600101906020018083116109a457829003601f168201915b5050505050908060010180546109d690611383565b80601f0160208091040260200160405190810160405280929190818152602001828054610a0290611383565b8015610a4f5780601f10610a2457610100808354040283529160200191610a4f565b820191906000526020600020905b815481529060010190602001808311610a3257829003601f168201915b505050505090806002018054610a6490611383565b80601f0160208091040260200160405190810160405280929190818152602001828054610a9090611383565b8015610add5780601f10610ab257610100808354040283529160200191610add565b820191906000526020600020905b815481529060010190602001808311610ac057829003601f168201915b5050505050908060030160009054906101000a900460ff16908060030160019054906101000a900460ff16905085565b6000604051806040016040528084848080601f016020809104026020016040519081016040528093929190818152602001838380828437600081840152601f19601f82011690508083019250505050505050815260200182151581525060008686604051610b7c9291906112cf565b90815260200160405180910390208888604051610b9a9291906112cf565b90815260200160405180910390206000820151816000019081610bbd919061156a565b5060208201518160010160006101000a81548160ff02191690831515021790555090505050505050505050565b60008060008484604051610bff9291906112cf565b90815260200160405180910390208686604051610c1d9291906112cf565b908152602001604051809103902060010160006101000a81548160ff0219169083151502179055505050505050565b6000604051905090565b600080fd5b600080fd5b600080fd5b600080fd5b600080fd5b60008083601f840112610c8557610c84610c60565b5b8235905067ffffffffffffffff811115610ca257610ca1610c65565b5b602083019150836001820283011115610cbe57610cbd610c6a565b5b9250929050565b60008060008060008060608789031215610ce257610ce1610c56565b5b600087013567ffffffffffffffff811115610d0057610cff610c5b565b5b610d0c89828a01610c6f565b9650965050602087013567ffffffffffffffff811115610d2f57610d2e610c5b565b5b610d3b89828a01610c6f565b9450945050604087013567ffffffffffffffff811115610d5e57610d5d610c5b565b5b610d6a89828a01610c6f565b92509250509295509295509295565b60008060008060408587031215610d9357610d92610c56565b5b600085013567ffffffffffffffff811115610db157610db0610c5b565b5b610dbd87828801610c6f565b9450945050602085013567ffffffffffffffff811115610de057610ddf610c5b565b5b610dec87828801610c6f565b925092505092959194509250565b600081519050919050565b600082825260208201905092915050565b60005b83811015610e34578082015181840152602081019050610e19565b60008484015250505050565b6000601f19601f8301169050919050565b6000610e5c82610dfa565b610e668185610e05565b9350610e76818560208601610e16565b610e7f81610e40565b840191505092915050565b60006020820190508181036000830152610ea48184610e51565b905092915050565b600080fd5b7f4e487b7100000000000000000000000000000000000000000000000000000000600052604160045260246000fd5b610ee982610e40565b810181811067ffffffffffffffff82111715610f0857610f07610eb1565b5b80604052505050565b6000610f1b610c4c565b9050610f278282610ee0565b919050565b600067ffffffffffffffff821115610f4757610f46610eb1565b5b610f5082610e40565b9050602081019050919050565b82818337600083830152505050565b6000610f7f610f7a84610f2c565b610f11565b905082815260208101848484011115610f9b57610f9a610eac565b5b610fa6848285610f5d565b509392505050565b600082601f830112610fc357610fc2610c60565b5b8135610fd3848260208601610f6c565b91505092915050565b60038110610fe957600080fd5b50565b600081359050610ffb81610fdc565b92915050565b6000806000806080858703121561101b5761101a610c56565b5b600085013567ffffffffffffffff81111561103957611038610c5b565b5b61104587828801610fae565b945050602085013567ffffffffffffffff81111561106657611065610c5b565b5b61107287828801610fae565b935050604085013567ffffffffffffffff81111561109357611092610c5b565b5b61109f87828801610fae565b92505060606110b087828801610fec565b91505092959194509250565b600080602083850312156110d3576110d2610c56565b5b600083013567ffffffffffffffff8111156110f1576110f0610c5b565b5b6110fd85828601610c6f565b92509250509250929050565b7f4e487b7100000000000000000000000000000000000000000000000000000000600052602160045260246000fd5b6003811061114957611148611109565b5b50565b600081905061115a82611138565b919050565b600061116a8261114c565b9050919050565b61117a8161115f565b82525050565b60008115159050919050565b61119581611180565b82525050565b600060808201905081810360008301526111b58187610e51565b905081810360208301526111c98186610e51565b90506111d86040830185611171565b6111e5606083018461118c565b95945050505050565b60006020828403121561120457611203610c56565b5b600082013567ffffffffffffffff81111561122257611221610c5b565b5b61122e84828501610fae565b91505092915050565b600060a08201905081810360008301526112518188610e51565b905081810360208301526112658187610e51565b905081810360408301526112798186610e51565b90506112886060830185611171565b611295608083018461118c565b9695505050505050565b600081905092915050565b60006112b6838561129f565b93506112c3838584610f5d565b82840190509392505050565b60006112dc8284866112aa565b91508190509392505050565b7f4e6f7420466f722053616c650000000000000000000000000000000000000000600082015250565b600061131e600c83610e05565b9150611329826112e8565b602082019050919050565b6000602082019050818103600083015261134d81611311565b9050919050565b7f4e487b7100000000000000000000000000000000000000000000000000000000600052602260045260246000fd5b6000600282049050600182168061139b57607f821691505b6020821081036113ae576113ad611354565b5b50919050565b60008190508160005260206000209050919050565b60006020601f8301049050919050565b600082821b905092915050565b6000600883026114167fffffffffffffffffffffffffffffffffffffffffffffffffffffffffffffffff826113d9565b61142086836113d9565b95508019841693508086168417925050509392505050565b6000819050919050565b6000819050919050565b600061146761146261145d84611438565b611442565b611438565b9050919050565b6000819050919050565b6114818361144c565b61149561148d8261146e565b8484546113e6565b825550505050565b600090565b6114aa61149d565b6114b5818484611478565b505050565b5b818110156114d9576114ce6000826114a2565b6001810190506114bb565b5050565b601f82111561151e576114ef816113b4565b6114f8846113c9565b81016020851015611507578190505b61151b611513856113c9565b8301826114ba565b50505b505050565b600082821c905092915050565b600061154160001984600802611523565b1980831691505092915050565b600061155a8383611530565b9150826002028217905092915050565b61157382610dfa565b67ffffffffffffffff81111561158c5761158b610eb1565b5b6115968254611383565b6115a18282856114dd565b600060209050601f8311600181146115d457600084156115c2578287015190505b6115cc858261154e565b865550611634565b601f1984166115e2866113b4565b60005b8281101561160a578489015182556001820191506020850194506020810190506115e5565b868310156116275784890151611623601f891682611530565b8355505b6001600288020188555050505b505050505050565b600061164782610dfa565b611651818561129f565b9350611661818560208601610e16565b80840191505092915050565b6000611679828461163c565b915081905092915050565b7f5573657220616c726561647920726567697374657265642e0000000000000000600082015250565b60006116ba601883610e05565b91506116c582611684565b602082019050919050565b600060208201905081810360008301526116e9816116ad565b905091905056fea2646970667358221220e1d9dbfc76c024ce3cdc964a3f23f103968a284ba13569bbd59ce96e0d7baf4f64736f6c63430008110033",
    "linkReferences": {},
    "deployedLinkReferences": {}
}